:020000040800F2
:10000000A8120020790200089B050008D10400080E
:10001000990500087103000821090008000000008C
:10002000000000000000000000000000C101000806
:10003000730300080000000015020008A90700086B
:10004000930200089302000893020008930200083C
:10005000930200089302000893020008930200082C
:10006000930200089302000893020008930200081C
:10007000930200089302000893020008930200080C
:1000800093020008930200089302000893020008FC
:1000900093020008930200089302000893020008EC
:1000A00093020008930200089302000893020008DC
:1000B00093020008930200089302000893020008CC
:1000C00093020008930200089302000893020008BC
:1000D00093020008930200089302000893020008AC
:1000E000930200089302000893020008930200089C
:1000F000930200089302000893020008930200088C
:10010000930200089302000893020008930200087B
:10011000930200089302000893020008930200086B
:10012000930200089302000893020008930200085B
:10013000930200089302000893020008930200084B
:10014000930200089302000893020008930200083B
:10015000930200089302000893020008930200082B
:10016000930200089302000893020008930200081B
:10017000930200089302000893020008930200080B
:1001800093020008930200089302000893020008FB
:1001900093020008930200089302000893020008EB
:1001A000930200089302000893020008DFF80CD0C5
:1001B00000F08AF800480047410B0008A812002010
:1001C0002A4B19680868B0E8F04F80F30988BFF33C
:1001D0006F8F4FF0000080F311887047000000001F
:1001E00006480068006880F3088862B661B6BFF30D
:1001F0004F8FBFF36F8F00DF00BF00BF08ED00E03F
:10020000DFF80C00016841F470010160704700BF25
:1002100088ED00E0EFF30980BFF36F8F134B1A688E
:100220001EF0100F08BF20ED108A20E9F04F10607B
:1002300008B44FF0500080F31188BFF34F8FBFF325
:100240006F8F01F0ABF84FF0000080F3118808BC0D
:1002500019680868B0E8F04F1EF0100F08BFB0EC46
:10026000108A80F30988BFF36F8F70472C0000203D
:10027000EFF30580704700000648804706480047B6
:10028000FEE7FEE7FEE7FEE7FEE7FEE7FEE7FEE746
:10029000FEE7FEE7BD070008AD01000830B50B46DC
:1002A000014600202022012409E021FA02F59D42A6
:1002B00005D303FA02F5491B04FA02F52844151E7A
:1002C000A2F10102F1DC30BD064C074D06E0E0680A
:1002D00040F0010394E8070098471034AC42F6D38D
:1002E000FFF768FFEC1700080C1800083EB500F097
:1002F000A7FE0D4A0420A2F513718DE80700002324
:1003000080220AA10C4801F02BF90C4C606008B166
:100310000BA000E010A000F005FB206800F096FFA5
:10032000BDE83E4000F0C8BEDC0400204C45445F00
:100330005461736B000000003105000824000020A8
:100340004C45445F5461736BC8CECEF1B4B4BDA8C4
:10035000B3C9B9A6210A00004C45445F5461736BD0
:10036000C8CECEF1B4B4BDA8CAA7B0DC210A000043
:10037000FEE77047F0B5012187B0084600F04AF962
:100380000121102000F052F9012500248DF80640CB
:100390008DF8075002266802254F8DF80560009001
:1003A0008DF804606946384600F046F8A8020090CF
:1003B0008DF804606946384600F03EF807220A21AD
:1003C000384600F075F807220921384600F070F829
:1003D0004FF4E130ADF80C400290ADF80E40ADF8AE
:1003E0001040ADF814400C20124CADF8120002A9D8
:1003F000204600F03BFA4FF4A06000F001F9252000
:100400008DF818008DF819508DF81A508DF81B5082
:1004100006A800F0C3F8012240F22551204600F062
:100420000CFA0121204600F0F7F907B0F0BD0000FA
:100430000000024000100140F0B5002201274FF0FB
:10044000030C0B6807FA02F52B40AB422CD106686F
:1004500053000CFA03F4A64306600E79D0F800E0CE
:100460009E4046EA0E0606600E79012E01D0022E4D
:1004700012D18668A64386604E79D0F808E09E4087
:1004800046EA0E0686604668AE43466045688E7949
:100490009640B6B235434560C568A543C560CC7982
:1004A0009C40C3681C43C460521C102AC9D3F0BDD1
:1004B0004B07DB0E9A40C90810B500EB8100016ABA
:1004C0000F249C40A1430162016A1143016210BDE7
:1004D000FEE700002DE9FC410121802000F09AF8A0
:1004E00001208DF8040000218DF806108DF807001A
:1004F0000E4F4FF480648DF805100094694638461D
:10050000FFF79AFF6500694638460095FFF794FFAC
:10051000A600694638460096FFF78EFF034818305C
:10052000048005800680BDE8FC810000001C0240BC
:100530000A4E4FF480644FF4FA75B71E3480284693
:1005400000F04AFE06A000F0EDF93C80284600F0DD
:1005500043FE0AA000F0E6F9F0E700001A1C024092
:100560004C45445F5461736B2052756E6E696E67C3
:100570002C4C4544315F4F4E0D0A00004C45445F02
:100580005461736B2052756E6E696E672C4C4544D6
:10059000315F4F46460D0A00FEE7704730B50F2326
:1005A000C27801780125FAB1144A126801F1E021FC
:1005B00002F4E062C2F5E062C2F30722C2F1040471
:1005C000D3404278A24084781C401443220181F831
:1005D0000024007800F01F018D404009800000F1E8
:1005E000E020C0F8005130BD01F01F0085404809EF
:1005F000800000F1E020C0F8805130BD0CED00E03B
:100600000249084302490860704700000000FA05EB
:100610000CED00E0044A0029116801D0014300E01C
:10062000814311607047000030380240044A0029BD
:10063000116801D0014300E0814311607047000060
:100640004438024070B5204B1968204C11F00C0161
:1006500004D01F4E042903D0082903D004601BE0F6
:10066000066019E0184A121F1168C1F3805511681D
:1006700001F03F0115B1B6FBF1F101E0B4FBF1F17E
:1006800014681268C4F388146143C2F30142521C17
:100690005200B1FBF2F1016019680F2202EA111158
:1006A0000C4A545C0168E14041601C68072505EA7A
:1006B0009424145D21FA04F484601B6805EA533322
:1006C000D25CD140C16070BD083802400024F40003
:1006D00040787D01140000201CB500212E4A0091B5
:1006E0000191106840F4803010604FF4A04310680E
:1006F00000F4003001900098401C0090019810B95F
:1007000000989842F3D11068800342D501200190EF
:1007100021484030016841F0805101601F4908685C
:1007200040F4404008601C480830036803600368D8
:1007300043F400430360036843F4A0530360041FC1
:10074000174B2360136843F08073136013689B0199
:10075000FCD50A6842F480320A604A68D203FCD5AC
:100760000A6842F400320A604A689203FCD50D4AD6
:1007700040F205711160016821F003010160016818
:1007800041F0020101600168C1F381010229FAD13F
:100790001CBD01911CBD00000038024000700040EB
:1007A000195A4007003C024010B500F023FF012811
:1007B00003D0BDE8104000F0BDBE10BD124810B51A
:1007C000016841F4700101601048016841F00101C5
:1007D00001600E4A00210832116002680C4B1A4079
:1007E0000260031D0B4A1A60026822F48022026034
:1007F00006480C300160FFF76FFF03494FF00060BF
:100800008039086010BD000088ED00E0003802402B
:10081000FFFFF6FE103000240029818902D041F448
:10082000005101E021F4005181817047024600200F
:1008300012880A4200D00120704710B5C1F342135C
:1008400001F01F040121A140012B07D0022B07D08A
:100850001430002A026805D00A4304E00C30F8E79F
:100860001030F6E78A43026010BD00007FB50446F1
:10087000008A0D46C98820F4405001432182A08996
:1008800041F20C618843A9882A8911436A8902438D
:100890001143A181A08A20F44071A8890843A08255
:1008A0006846FFF7CFFE1A48844202D019488442B6
:1008B00001D1039800E00298A189090400EBC0016E
:1008C00001EB0010296801D5490000E08900B0FB68
:1008D000F1F06422B0FBF2F109010B096FF0180589
:1008E0006B4300EB8300A3891D044FF0320306D550
:1008F00003EBC000B0FBF2F000F0070005E003EBF3
:100900000010B0FBF2F000F00F00084320817FBD23
:100910000010014000140140C1F3080181807047BC
:10092000FEE700000FB4054B10B503A9044A029876
:1009300000F018F810BC5DF814FB00001D0B000857
:100940008C00002002E008C8121F08C1002AFAD15A
:1009500070477047002001E001C1121F002AFBD13F
:10096000704700002DE9FF4F8BB09A460F460546B1
:10097000002606E025280BD052460D9990476D1CA5
:10098000761C28780028F5D10FB03046BDE8F08FEE
:100990000024A0460122604900E0044315F8013F0D
:1009A000203B02FA03F00842F7D128782E2817D10D
:1009B00015F8010F44F004042A280ED06FF02F021E
:1009C0002878A0F1300109290AD808EB880102EB48
:1009D000410100EB01086D1CF2E757F8048B6D1C18
:1009E000287869283ED006DC0028CDD063280BD0BB
:1009F000642804D136E0732810D075284BD05246B5
:100A00000D999047761C85E017F8040B8DF80000CF
:100A100000208DF80100E946012003E057F8049B0F
:100A20004FF0FF3061074FF0000401D40AE0641C6E
:100A300044450DDA8442FADB19F804100029F6D196
:100A400006E0641C8442FCDB19F804100029F8D18C
:100A5000264404E019F8010B52460D999047641E94
:100A6000F8D257E001CF4FF00A0B002802DA4042DB
:100A70002D2102E0210504D52B218DF82410012120
:100A800003E0E10705D02021F7E70DF120090891E7
:100A90000CE00021F9E701CF4FF00A0BF9E75946C6
:100AA000FFF7FCFB01F1300209F8012D0028F6D117
:100AB000ADEB090000F1200B600701D44FF00108F5
:100AC000D84502DDA8EB0B0000E0002080460024A2
:100AD00006E009A85246005D0D999047641C761CFB
:100AE00008988442F5DB04E0302052460D99904787
:100AF000761CB8F10001A8F10108F5DC05E019F851
:100B0000010B52460D999047761CBBF10001ABF1E9
:100B1000010BF4DC6D1C34E70928010070B5074DAA
:100B20000446C1B22846FFF7F7FE80212846FFF7AA
:100B30007DFE0028F9D0204670BD00000010014065
:100B40000EB54FF44070FFF75BFDFFF7C3FCFFF7F6
:100B500011FC0AA0FFF7E6FE174A0320A2F5806108
:100B60008DE807000023802214A1184800F0F8FC4B
:100B70001749086008B100F0D3FBFEE7D5E2CAC709
:100B8000D2BBB8F65BD2B0BBF05D2D53544D3332BF
:100B9000C8ABCFB5C1D0BFAAB7A2B0E52D4672652C
:100BA0006552544F532DBEB2CCACB4B4BDA8B5A55C
:100BB000C8CECEF1210D0A0090040020417070547F
:100BC00061736B437265617465000000ED0200089B
:100BD000240000202DE9F041184E0F460446F56828
:100BE0003068001D00F0DEF938B9306890F82C103C
:100BF00001208840316981433161601C07D137B1E0
:100C00003168BDE8F0410E48091D00F00DBA3068AA
:100C10002C44AC424460316805D2B06BBDE8F04171
:100C2000091D00F0E9B9706B091D00F0E5F9B06A23
:100C3000844200D2B462BDE8F08100002C000020A4
:100C4000900E00202DE9F041054600F0F9F92D4EF7
:100C5000B068401CB06030682B4F10B1706930B381
:100C60002BE03560B068012827D1002404EB840014
:100C700007EB800000F0B2F9641C202CF6D3234867
:100C800000F0ACF92148143000F0A8F91F482830D2
:100C900000F0A4F91D483C3000F0A0F91B4850308A
:100CA00000F09CF9194870631430B06305E03068B7
:100CB000E96AC06A884200D83560706A0121401C28
:100CC0007062E86A326981401143316100EB800053
:100CD00007EB8000291D00F0A7F900F0EDF970691D
:100CE00000280CD03068E96AC06A884207D20849F7
:100CF0004FF080500860BFF34F8FBFF36F8FBDE898
:100D0000F08100002C000020C00B0020400E0020CD
:100D100004ED00E070B5124E124D1CE000F036FB01
:100D2000306820B1002400F0EBFCA4B901E00124FC
:100D3000F9E700F085F9F068C468201D00F032F989
:100D4000A868401EA8606868401E686000F0B4F99A
:100D5000204600F009F868680028DFD170BD000067
:100D60007C0E00202C00002010B5044690F84900AD
:100D700058B101280CD002280FD0BDE8104040F631
:100D8000296206A10CA0FFF7CDBD206B00F0C6F9CB
:100D90002046BDE8104000F0C1B910BD2E2E5C2EDB
:100DA0002E5C4672656552544F535C7372635C747B
:100DB00061736B732E6300004572726F723A257314
:100DC0002C25640D0A000000074E4FF08054074D9B
:100DD000FFF7A0FF30680128FAD92C60BFF34F8FCE
:100DE000BFF36F8FF4E70000C00B002004ED00E0BC
:100DF0002DE9F047DDE909840E4682466FF00301D4
:100E0000206B01EB82010844089D20F007079946FA
:100E1000780705D040F22B3218A11FA0FFF782FD02
:100E200000202218315C82F83410315C11B1401C72
:100E30001028F6D3002684F84360202D00D31F2508
:100E4000201DE56200F0D5F804F1180000F0D1F89B
:100E50002461C5F120006462A061666484F8486082
:100E60004A465146384600F087F82060B8F1000F36
:100E700001D0C8F80040BDE8F08700002E2E5C2E9F
:100E80002E5C4672656552544F535C7372635C749A
:100E900061736B732E6300004572726F723A257333
:100EA0002C25640D0A00000030B5114900E0114600
:100EB0000A688242FBD34B685C18844203D14068C5
:100EC00018444860084643681C18944209D1084CED
:100ED000103C2468A24209D052681A4442600A6851
:100EE00012680260814200D0086030BD0460F9E7FA
:100EF000780000200648416B096829B1416BC96838
:100F0000C9684968816270474FF0FF31FAE7000015
:100F10002C00002008484068401C05D040F20F1209
:100F200006A111A0FFF7FEFC502080F31188BFF34B
:100F30004F8FBFF36F8FFEE7800000202E2E5C2EB8
:100F40002E5C4672656552544F535C706F72745CD0
:100F5000525644535C41524D5F434D34465C706F72
:100F600072742E63000000004572726F723A25732E
:100F70002C25640D0A00000010B5031F4FF080748B
:100F80001C601B1F21F001011960191F044B0B602D
:100F900014390A60091F6FF0020244380A6010BD5C
:100FA000150F0008D0E9013201699A60D0E90123E8
:100FB0005A604A68824201D182684A600022026116
:100FC0000868401E08607047034B0360A3F5C060CB
:100FD0000860802010607047280B002000F1080195
:100FE0004FF0FF32C0E90112C160016100210160D0
:100FF000704700210161704730B50C68621C02D057
:1010000000F1080202E0026904E01A4653681D6814
:10101000A542FAD953684B6099608A6051600861B3
:101020000168491C016030BD42684A6093688B606A
:1010300093685960916008610168491C01607047BC
:10104000502080F31188BFF34F8FBFF36F8F094992
:101050004868401C486001280AD10748006810F021
:10106000FF0F05D040F2B91204A10FA0FFF75ABC40
:10107000704700008000002004ED00E02E2E5C2E62
:101080002E5C4672656552544F535C706F72745C8F
:10109000525644535C41524D5F434D34465C706F31
:1010A00072742E63000000004572726F723A2573ED
:1010B0002C25640D0A00000010B5084C606828B9A2
:1010C0004FF4E07206A111A0FFF72CFC6068401EEF
:1010D000606001D180F3118810BD00008000002005
:1010E0002E2E5C2E2E5C4672656552544F535C70FA
:1010F0006F72745C525644535C41524D5F434D34A1
:10110000465C706F72742E63000000004572726F4F
:10111000723A25732C25640D0A00000070B5002872
:101120002AD0164DA0F108046068E968084205D18C
:101130004FF4A07212A11CA0FFF7F4FB206828B1A5
:1011400040F241120EA118A0FFF7ECFB6068E968BD
:10115000084211D02268002A0ED18843606000F056
:1011600015F960686968084468602046FFF79CFECE
:10117000BDE8704000F0C4BA70BD000068000020F7
:101180002E2E5C2E2E5C4672656552544F535C7059
:101190006F72745C4D656D4D616E675C6865617002
:1011A0005F342E63000000004572726F723A25733F
:1011B0002C25640D0A00000006484FF47A7100687F
:1011C000B0FBF1F14FF0E020491E416107210161C0
:1011D000704700000000002010B5040012D00E4936
:1011E000096B29B140F2CF420CA113A0FFF79AFB83
:1011F00000F0CCF800212046FFF7ECFC00F080FA6C
:10120000002807D110494FF080500860BFF34F8F7E
:10121000BFF36F8F10BD00002C0000202E2E5C2E1F
:101220002E5C4672656552544F535C7372635C74F6
:1012300061736B732E6300004572726F723A25738F
:101240002C25640D0A00000004ED00E070B5044692
:10125000FFF7F6FE234D04B92C68201DFFF7A2FE10
:1012600058B9E06A204A00EB800152F8211021B9F8
:1012700001218140286988432861A06A18B104F1DE
:101280001800FFF78FFE686A401C68622868844275
:1012900007D1211D1548FFF7C7FE6868401C68602C
:1012A00007E0A868401EA8602046FFF75DFDFFF735
:1012B00021FEFFF701FF6869002812D028688442E8
:1012C0000FD1286B28B140F2654209A10FA0FFF7AA
:1012D00029FB12494FF080500860BFF34F8FBFF3D6
:1012E0006F8F70BD2C000020C00B00207C0E0020F2
:1012F0002E2E5C2E2E5C4672656552544F535C73E5
:1013000072635C7461736B732E6300004572726F5D
:10131000723A25732C25640D0A00000004ED00E0EC
:1013200010B586B00024039405AA04A903A8049468
:10133000FFF74AFEDDE903010094CDE90110002327
:101340000EA11048059A00F00BF90F490028C86259
:1013500011D0502080F31188BFF34F8FBFF36F8FF0
:101360004FF0FF30886201204861CC6006B0BDE8D4
:10137000104000F055B806B010BD000049444C457F
:1013800000000000C90D00082C0000200248016B7D
:10139000491C0163704700002C00002070B5134DFC
:1013A000286B10B10120E86170BD0020E861286958
:1013B0000F4EB0FA80F0C0F11F0000EB800456F829
:1013C000240028B940F6F6220AA111A0FFF7AAFAD4
:1013D00006EB840000F108024168496841609142CF
:1013E00001D149684160C868286070BD2C000020A8
:1013F000C00B00202E2E5C2E2E5C4672656552546A
:101400004F535C7372635C7461736B732E63000083
:101410004572726F723A25732C25640D0A00000024
:101420001CB5304C20683049884205D140F2591231
:101430002EA139A0FFF776FA20682B49491E884271
:1014400005D14FF4AD7229A133A0FFF76BFA364CEA
:1014500020780190FF20207020788DF800009DF802
:1014600000009DF8001000F0F000884205D040F226
:1014700073121EA128A0FFF755FA9DF800002B4A11
:1014800000F0500010700720906007E09068401E48
:1014900090609DF8000040008DF800009DF800006D
:1014A0000006F3D4107A000200F4E0609060019826
:1014B00020700C482030016841F47001016001681F
:1014C00041F070410160FFF777FE00205060FEF7A9
:1014D00097FE1748016841F040410160FEF780FE29
:1014E00000201CBD00ED00E071C20F412E2E5C2ECD
:1014F0002E5C4672656552544F535C706F72745C1B
:10150000525644535C41524D5F434D34465C706FBC
:1015100072742E63000000004572726F723A257378
:101520002C25640D0A00000000E400E0800000208B
:1015300034EF00E010B5502080F31188BFF34F8FD7
:10154000BFF36F8F00F064F818B104494FF080507A
:101550000860002080F3118810BD000004ED00E059
:101560002DE9F04F85B09846DDE90F540E9F914666
:101570008A4683462DB940F2552213A119A0FFF7E0
:10158000D1F90026A4B1CDB10220256384F8490029
:101590000DF1040C04A800978CE8510043464A461C
:1015A00051465846FFF724FC2046FFF74BFB06E068
:1015B00040F2562204A10BA0FFF7B4F90496049858
:1015C00005B0BDE8F08F00002E2E5C2E2E5C46721A
:1015D000656552544F535C7372635C7461736B73D3
:1015E0002E6300004572726F723A25732C25640DCC
:1015F0000A0000000548416919B1006B18B10020CC
:101600007047012070470220704700002C00002026
:101610002DE9F0412D4F0026386B40B1B869401CD0
:10162000B861F86900B101263046BDE8F081FD6877
:101630006D1CFD6011D1786B006828B140F6D9129D
:1016400023A12AA0FFF76EF9786BB96B7963B863B1
:10165000386A401C3862FFF74DFCB86ADFF89C809E
:10166000854209D3786B006880B1786BC068C46824
:10167000606885420DD2B8623868C06A00EB8001AC
:1016800058F821000128CCD90126CAE74FF0FF30D5
:10169000F1E7201DFFF786FCA06A18B104F11800DD
:1016A000FFF780FCE06A01213A698140114339610A
:1016B00000EB800108EB8100211DFFF7B5FCE06A1B
:1016C0003968C96A8842CDD30126CBE72C000020B7
:1016D0002E2E5C2E2E5C4672656552544F535C7301
:1016E00072635C7461736B732E6300004572726F7A
:1016F000723A25732C25640D0A000000C00B0020EF
:101700002DE9F0472B4D00242746286B28B94FF4CC
:10171000FD6229A12FA0FFF705F9FFF791FC286BC7
:10172000401E2863286BE8BBA8682E490126C8B371
:10173000A1F52A798846D8F80010E9B1D8F80C004C
:10174000C46804F11800FFF72DFC201DFFF72AFCE8
:10175000E06A2A6906FA00F11143296100EB800171
:1017600009EB8100211DFFF75FFCE06A2968C96A67
:101770008842E0D3EE61DEE70CB1FFF7BBFBAC695A
:101780003CB1FFF745FF00B1EE61641EF9D10020C6
:10179000A861E86930B11449012738070860BFF330
:1017A0004F8F00E001E0BFF36F8FFFF785FC3846F5
:1017B000BDE8F0872C0000202E2E5C2E2E5C467299
:1017C000656552544F535C7372635C7461736B73E1
:1017D0002E6300004572726F723A25732C25640DDA
:1017E0000A000000680E002004ED00E00C1800085C
:1017F0000000002090000000440900089C18000828
:101800009000002018120000540900080095BA0A40
:1018100000000000000000000102030406070809A0
:101820000000000001020304010203040607080986
:1018300000000000000000000000000000000000A8
:101840000000000000000000000000000000000098
:101850000000000000000000000000000000000088
:101860000000000000000000000000000000000078
:101870000000000000000000000000000000000068
:101880000000000000000000000000000000000058
:0C189000AAAAAAAA0000000000000000A4
:04000005080001AD41
:00000001FF
